:020000040800F2
:1000000030420020A1010008E95F00084D570008B8
:10001000895E0008DD0800082D740008000000005B
:10002000000000000000000000000000396300082C
:10003000190B0008000000005960000891630008D7
:10004000BB010008BB010008BB010008BB010008A0
:10005000BB010008BB010008BB010008BB01000890
:10006000BB010008BB010008BB0100080109000832
:1000700011090008BB01000821090008BB010008A4
:100080003109000841090008BB010008BB01000854
:10009000E1080008BB010008BB010008BB01000823
:1000A000BB010008AD630008BB010008BB010008EC
:1000B000BD630008BB010008BB010008BB010008CC
:1000C000BB010008BB010008BB010008BB01000820
:1000D000BB01000811700008597100080174000884
:1000E000BB010008BB010008BB010008FD6300085C
:1000F0000D640008BB010008BB010008510900089D
:10010000BB010008BB010008CD630008BB0100086B
:10011000BB010008C5660008DD630008ED63000848
:10012000BB0100086109000871090008BB01000853
:10013000BB0100080000000000000000BB01000837
:10014000BB010008F1080008BB010008BB01000862
:10015000BB010008BB010008BB01000811740008C6
:10016000BB010008BB010008BB010008BB0100087F
:10017000BB010008BB0100080000000000000000F7
:10018000BB010008BB010008DFF810D000F08EFBB7
:1001900000F06EF800480047E5D900083042002022
:1001A0000648804706480047FEE7FEE7FEE7FEE711
:1001B000FEE7FEE7FEE7FEE7FEE7FEE799630008DD
:1001C000890100082DE9F05F0546002092469B4614
:1001D00088460646814640241BE02846414647465D
:1001E000224600F07CFA53465A46C01A914110D379
:1001F00011461846224600F063FA2D1A67EB0108F3
:100200004F4622460120002100F05AFA17EB000960
:100210004E41201EA4F10104DFDC484631462A4647
:100220004346BDE8F09F40EA01039B0703D009E085
:1002300008C9121F08C0042AFAD203E011F8013BD2
:1002400000F8013B521EF9D27047D2B201E000F82B
:10025000012B491EFBD270470022F6E710B513466A
:100260000A4604461946FFF7F0FF204610BD00007D
:100270007CB507480090074801900546009C04E0C3
:100280002046016808448047241DAC42F8D17CBD5B
:10029000DCEB000808EC00082DE9FE4F804681EAFF
:1002A0000300C00F0C46009021F0004123F00045F0
:1002B000B8EB0200A94105D24046214690461C46B3
:1002C0000B46024623F00040104347D0270DC7F3EA
:1002D0000A00C3F30A510290401A019040286BDAD9
:1002E000C3F3130040F4801B0098924620B1002312
:1002F000D2EB030A63EB0B0B01985946C0F14002A5
:10030000504600F0DDF906460D4650465946019A22
:1003100000F0F5F910EB08006141002487EA115262
:1003200084EAE7731A4340D0009A62B3019A012A23
:100330004FEA075215DC001B61EB02014FF000424F
:1003400002EA0752CDE90042001C41F58011324615
:100350002B4600F02CFA03B0BDE8F08F4046214652
:10036000F9E7001B61EB0201001C41F58013001846
:100370005B412018A2F5001747EB030140EAD57056
:10038000B6196D4111E06D084FEA360645EAC075B1
:100390004FEA0752001B61EB0201001C41F580117E
:1003A00049084FEA30000019514132462B4603B04C
:1003B000BDE8F04F00F0ECB90098012240000023A6
:1003C000D0EB020263EBE073009821464FEAE07441
:1003D000B8EB000061EB0401E9E783F000435BE761
:1003E00081F0004158E72DE9FE4F81EA030404F053
:1003F000004421F0004100944FF0000B23F0004333
:1004000050EA01045ED052EA03045BD0C3F30A54FD
:10041000C1F30A552C44A4F2F3340194A0FB025416
:10042000C1F3130141F48011C3F3130343F48013A8
:1004300001FB024400FB034E840A970A44EA8154FC
:1004400047EA8357A4FB076802958D0A05FB0785D9
:100450004FEA932C04FB0C542705029D4FEA0658E3
:1004600047EA1637B5EB08056EEB070C870E920EC0
:1004700047EA811742EA8312A7FB0201B6EB0B01A0
:1004800064EB00042B0D43EA0C335E1844EB1C5064
:10049000DA465146E7FB0201C5F313044FEA0B337A
:1004A00043EA14534FEA0432019C43EA0603A4F1E1
:1004B0000C040294009CCDE900B400F078F903B07C
:1004C000BDE8F08F00200146F9E72DE9F04D81EA03
:1004D000030404F0004B21F0004514464FF0000ADD
:1004E00023F0004150EA050220D054EA01021DD059
:1004F000C5F30A570246C5F31303C1F31300C1F352
:100500000A5640F4801543F48013A7EB0608101B2D
:10051000D64608F2FD3873EB050002D308F1010856
:1005200001E092185B41B8F1000F03DA00200146A8
:10053000BDE8F08D00204FF48011064684460EE0A1
:10054000171B73EB050705D3121B63EB050306436B
:100550004CEA010C49084FEA300092185B4150EA1E
:100560000107EDD152EA030012D082EA040083EAC7
:100570000501084305D0101BAB4106D20122002320
:1005800006E000224FF0004302E06FF0010253103A
:100590001AEB06004CEB085110EB0A0041EB0B0183
:1005A000BDE8F04D00F0F4B830B5041E71F1000460
:1005B00004DB4FF00044404264EB0101141E73F170
:1005C000000405DB1C464FF00043524263EB04037A
:1005D000801A994101D3012030BD002030BD30B5D3
:1005E000041E71F1000404DB4FF00044404264EB50
:1005F0000101141E73F1000405DB1C464FF000439B
:10060000524263EB0403101A8B4101D3012030BD29
:10061000002030BD0EB5C10F80EAE0700844CA0763
:10062000002140F233438DE80E000A460B4600F0ED
:10063000BEF803B000BD00F0004230F000400AD028
:10064000C10D01F56071C0F3160042EA0151C20804
:1006500040071143704700200146704701F00043F6
:1006600030B421F0004150EA010206D00A0DA2F593
:100670006072C1F31301002A02DC30BC0020704715
:10068000440F44EAC104C100E01830BC00EBC25082
:1006900000F047B830B50B46014600202022012467
:1006A00009E021FA02F59D4205D303FA02F5491B40
:1006B00004FA02F52844151EA2F10102F1DC30BD56
:1006C000202A04DB203A00FA02F100207047914012
:1006D000C2F1200320FA03F3194390407047202A07
:1006E00004DB203A21FA02F00021704721FA02F3DC
:1006F000D040C2F120029140084319467047202A99
:1007000006DBCB17203A41FA02F043EAE07306E039
:1007100041FA02F3D040C2F1200291400843194649
:1007200070470029A8BF7047401C490008BF20F04F
:100730000100704710B4B0FA80FC00FA0CF050EAE7
:10074000010404BF10BC704749B1CCF1200421FA68
:1007500004F411FA0CF118BF012121430843A3EB63
:100760000C01CB1D4FEA00614FEA102042BF002070
:1007700010BC704700EBC35010440029A4BF10BC4C
:100780007047401C490008BF20F0010010BC7047B2
:1007900010B5141E73F1000408DA401C41F1000189
:1007A00092185B411A4301D120F0010010BD2DE9E0
:1007B000F04D92469B4611B1B1FA81F202E0B0FAD7
:1007C00080F220329046FFF77BFF04460F4640EA56
:1007D0000A0041EA0B0153465A46084313D011461A
:1007E00053EA010019D0C8F140025046FFF777FFE5
:1007F00005460E46504659464246FFF761FF0843FC
:1008000005D0012004E020463946BDE8F08D0020E7
:10081000054346EAE0762C4337430A986305E40A29
:10082000A0EB08000022FD0A44EA47540A3002D532
:1008300000200146E9E7010510196941DDE9084595
:1008400000196941BDE8F04DA2E7C1F30A52C1F3B6
:10085000130140F2FF3341F480119A4202DA002082
:100860000146704740F233439A42A2F2334202DC1F
:100870005242FFF734BFFFF723BF000030B5041E1C
:1008800071F1000404DB4FF00044404264EB0101CD
:10089000141E73F1000405DB1C464FF00043524266
:1008A00063EB0403994208BF904230BD1CB5094870
:1008B0000090094801900546009C06E0E06840F081
:1008C000010394E8070098471034AC42F6D3FFF7D1
:1008D0005FFC0000BCEB0008DCEB0008FFE7FEE774
:1008E00080B541F20800C2F2000000F051FC80BD6A
:1008F00080B541F23000C2F2000000F049FC80BD3A
:1009000080B541F25800C2F2000001F095F980BDB7
:1009100080B541F23820C2F2000001F08DF980BDAF
:1009200080B541F29820C2F2000001F085F980BD47
:1009300080B541F27810C2F2000001F07DF980BD6F
:1009400080B541F2D810C2F2000001F075F980BD07
:1009500080B541F2B800C2F2000001F06DF980BD2F
:1009600080B541F2F820C2F2000001F065F980BDC7
:1009700080B541F21810C2F2000001F05DF980BDAF
:1009800082B001900198007810384AF6AB21CAF67F
:10099000AA21A0FB01100009009000994EF6EA0080
:1009A000C0F60000405C0199C8650098042807D390
:1009B000FFE701990868042262F30900886506E0F0
:1009C0000199086840F2FF3290438865FFE701987B
:1009D000806D02B07047000086B0059000208DF851
:1009E00013000598806A03900598806910BBFFE7A3
:1009F0000398029003281BD80299DFE801F0020D4A
:100A00000218059890F82F00C00720B1FFE70120D9
:100A10008DF81300FFE70CE00598C06AB0F1C07FC5
:100A200004D1FFE701208DF81300FFE701E000E0AB
:100A3000FFE745E005988069B0F5005F25D1FFE745
:100A40000398019003281ED80199DFE801F00206FF
:100A5000021101208DF8130016E0059890F82F0080
:100A6000C00720B1FFE701208DF81300FFE70BE07E
:100A70000598C06AB0F1C07F04D1FFE701208DF86E
:100A80001300FFE700E0FFE719E003980090032858
:100A900004D3FFE70098032804D00EE001208DF86E
:100AA00013000BE0059890F82F00C00720B1FFE776
:100AB00001208DF81300FFE700E0FFE7FFE7FFE705
:100AC0009DF8130006B0704784B003900291019224
:100AD000009303980168086820F48020086000985B
:100AE00003990968486003988068402809D1FFE7A6
:100AF0000198039909688860029803990968C86099
:100B000008E00298039909688860019803990968C8
:100B1000C860FFE704B070477047000072B6FFE797
:100B2000FEE7000080B584B0039003980078662843
:100B300040D1FFE70398007F11283BD1FFE70398DE
:100B4000407840F68C42C2F20002029202F8040B96
:100B5000039840F2D011C2F20001019191ED7A0A9E
:100B6000022107F04FFC0299039801F108020621C7
:100B700007F016FC0299039801F10C020A2107F014
:100B80000FFC019A0299039892ED790A01F1100283
:100B90000E2107F037FC0299039801F1140212218B
:100BA00007F0FEFB0299039801F11802162107F0E5
:100BB000F7FBFFE704B080BD84B00290019102987A
:100BC00090F820008DF803009DF80300012805D05F
:100BD000FFE79DF8030002280AD1FFE7019A029877
:100BE000016848691043486100208DF80F0008E053
:100BF0000299486A40F48020486201208DF80F0075
:100C0000FFE79DF80F0004B07047000088B0069021
:100C1000059104920393069890F820008DF8070040
:100C200006980068806800900598806808B9FFE71A
:100C300000E0FFE79DF80700012806D0FFE79DF8D8
:100C40000700022840F08080FFE79DF8030040077E
:100C500000280CD4FFE79DF803000007002806D405
:100C6000FFE79DF80300C006002864D5FFE7009861
:100C7000C0F3016002900299012088400399086046
:100C80000598806868B9FFE705980168C06840EA80
:100C9000415006990968029A01EB0211C1F88001DE
:100CA0000EE005994A688868C96840EAC2000843AE
:100CB00006990968029A01EB0211C1F88001FFE769
:100CC0000598006906990968029A01EB0211C1F8BA
:100CD00084010598007D01280CD1FFE70698006883
:100CE000029900EB0111D1F8840140F48070C1F841
:100CF0008401FFE70498406806990968029A01EBAD
:100D00000211C1F88C010498006806990968029ADA
:100D100001EB0211C1F8880106980068029900EB06
:100D20000111D1F8800140F00100C1F880010020DC
:100D30008DF81F0011E00699486A40F400104862DF
:100D400001208DF81F0008E00699486A40F48020D1
:100D5000486201208DF81F00FFE79DF81F0008B0D2
:100D60007047000086B004900391049890F820002A
:100D70008DF803009DF80300012806D0FFE79DF8D9
:100D80000300022840F0B080FFE746F20040C4F2C2
:100D9000000001900199D1F8000240F00100C1F873
:100DA00000020199D1F8000220F47C50C1F8000241
:100DB0000398426A0199D1F8000240EA0220C1F882
:100DC00000020398406900F01F0101208840029052
:100DD000029A0199D1F81C029043C1F81C020398B1
:100DE000C069F0B9FFE7029A0199D1F80C0290436B
:100DF000C1F80C02039A9088D168526940EA014018
:100E0000019901EBC201C1F84002039A1088916870
:100E1000526940EA0140019901EBC201C1F8440264
:100E2000FFE70398C06901281ED1FFE7029A0199E4
:100E3000D1F80C021043C1F80C02039A9088116893
:100E4000526940EA0140019901EBC201C1F8400238
:100E5000039A90899168526940EA0140019901EB37
:100E6000C201C1F84402FFE70398806940B9FFE777
:100E7000029A0199D1F804029043C1F8040207E0F4
:100E8000029A0199D1F804021043C1F80402FFE765
:100E90000398006940B9FFE7029A0199D1F814025A
:100EA0009043C1F8140207E0029A0199D1F81402A4
:100EB0001043C1F81402FFE70398006A012808D123
:100EC000FFE7029A0199D1F81C021043C1F81C02F5
:100ED000FFE70199D1F8000220F00100C1F80002FB
:100EE00000208DF8170008E00499486A40F480203B
:100EF000486201208DF81700FFE79DF8170006B043
:100F00007047000081B0009001B0704786B0049037
:100F1000039102920193049890F820008DF8030049
:100F20009DF80300012806D0FFE79DF80300022882
:100F300040F0E880FFE7039880B9FFE70498006875
:100F4000C068800748B9FFE70499486A40F4001078
:100F5000486201208DF81700DDE00FE0049800687A
:100F60000069800748B9FFE70499486A40F4001017
:100F7000486201208DF81700CDE0FFE70498006873
:100F8000039900EB0110D0F8B00100F004000299C1
:100F900088600298806858B9FFE704980068039950
:100FA00000EB0110D0F8B001400D029908600AE092
:100FB00004980068039900EB0110D0F8B001C00854
:100FC00002994860FFE704980068039900EB01105C
:100FD000D0F8B00100F002000299C86004980068DF
:100FE000039900EB0110D0F8B40100F00F000828BD
:100FF00004D3FFE70299082008610BE00498006819
:10100000039900EB0110D0F8B40100F00F00029931
:101010000861FFE704980068039900EB0110D0F81D
:10102000B40180B2000A02998861049800680399AB
:1010300000EB0110D0F8B401000C0299486104984B
:101040000068039900EB0110D0F8B801019908700D
:1010500004980068039900EB0110D0F8B801000A69
:101060000199487004980068039900EB0110D0F8CA
:10107000B801000C0199887004980068039900EB8E
:101080000110D0F8B801000E0199C87004980068EA
:10109000039900EB0110D0F8BC0101990871049884
:1010A0000068039900EB0110D0F8BC01000A019917
:1010B000487104980068039900EB0110D0F8BC0156
:1010C000000C0199887104980068039900EB0110E5
:1010D000D0F8BC01000E0199C871039838B9FFE738
:1010E00004980168C86840F02000C86006E00498D1
:1010F0000168086940F020000861FFE700208DF8D2
:10110000170008E00499486A40F4802048620120F2
:101110008DF81700FFE79DF8170006B07047000034
:1011200083B0029000200190029890F820008DF882
:1011300003009DF80300012805D0FFE79DF8030098
:10114000022822D1FFE70298006880684001002849
:1011500004D5FFE7019801300190FFE7029800688D
:1011600080680001002804D5FFE701980130019054
:10117000FFE7029800688068C000002804D5FFE7F8
:10118000019801300190FFE7FFE7019803B0704735
:1011900080B58AB0099000200890099800684069DD
:1011A0000790099800684068069009980068806870
:1011B000059009980068C068049009980068006963
:1011C000039009980068806902909DF81C00C00790
:1011D000002800F09480FFE79DF81400C00758B382
:1011E000FFE709980168012088609DF814008007D6
:1011F000002804D5FFE7099800F06EFC1BE09DF87D
:1012000014004007002805D5FFE7089840F4006067
:1012100008900FE09DF814000007002805D5FFE7AF
:10122000089840F48050089003E0099800F050FCC2
:10123000FFE7FFE7FFE7FFE79DF81500C00760B392
:10124000FFE7099801684FF4807088609DF81500E9
:101250008007002804D5FFE7099800F045FC1BE053
:101260009DF815004007002805D5FFE7089840F4D1
:10127000005008900FE09DF815000007002805D5E4
:10128000FFE7089840F48040089003E0099800F0D8
:1012900027FCFFE7FFE7FFE7FFE79DF81600C00721
:1012A00060B3FFE7099801684FF4803088609DF8CB
:1012B00016008007002804D5FFE7099800F01CFC01
:1012C0001BE09DF816004007002805D5FFE70898A9
:1012D00040F4004008900FE09DF816000007002839
:1012E00005D5FFE7089840F48030089003E009989E
:1012F00000F0FEFBFFE7FFE7FFE7FFE7FFE79DF8F2
:101300001C000007002810D5FFE79DF81000C0065C
:10131000002809D5FFE7089840F400700890099864
:1013200001681020C860FFE7FFE79DF81C00400738
:1013300000280FD5FFE79DF810000007002808D50A
:10134000FFE7099801680820C860099800F0CEFA04
:10135000FFE7FFE79DF81C00800700280BD5FFE79B
:1013600009980068C068800720B1FFE7099800F07D
:10137000C1FAFFE7FFE79DF81C004006002810D5E2
:10138000FFE79DF80C00C006002809D5FFE7089884
:1013900040F4806008900998016810200861FFE718
:1013A000FFE79DF81C00800600280FD5FFE79DF899
:1013B0000C000007002808D5FFE7099801680820FD
:1013C0000861099800F0D4FAFFE7FFE79DF81C00D8
:1013D000C00600280BD5FFE7099800680069800760
:1013E00020B1FFE7099800F0C7FAFFE7FFE79DF893
:1013F0001E00800700280FD5FFE79DF81800C006E3
:10140000002808D5FFE7099801681020486009986E
:1014100000F014FBFFE7FFE79DF81E00C00778B15E
:10142000FFE79DF818000007002808D5FFE7099896
:10143000016808204860099800F062FBFFE7FFE7B9
:101440009DF81D000006002840F18D80FFE79DF803
:1014500018004007002840F18180FFE79DF81D003B
:10146000C00750B1FFE79DF80800C00728B1FFE7AB
:10147000089840F001000890FFE79DF81D008007E4
:1014800000280BD5FFE79DF808008007002805D548
:10149000FFE7089840F002000890FFE79DF81D0064
:1014A000400700280BD5FFE79DF8080040070028FB
:1014B00005D5FFE7089840F004000890FFE79DF885
:1014C0001D000007002848D5FFE79DF8080010F030
:1014D000700F42D0FFE7029800F0700001460191C2
:1014E000102814D0FFE70198202815D0FFE70198B5
:1014F000302816D0FFE70198402817D0FFE7019861
:10150000502818D0FFE70198602819D01DE00898EE
:1015100040F00800089019E0089840F0100008908A
:1015200014E0089840F0200008900FE0089840F080
:10153000400008900AE0089840F08000089005E01C
:10154000089840F48070089000E0FFE7099801686F
:10155000886920F070008861FFE7FFE7099801685B
:1015600004204860FFE7089848B1FFE7089A099906
:10157000486A104348620998FFF7C4FCFFE70AB0C5
:1015800080BD000080B584B00290029820B9FFE7CA
:1015900001208DF80F00E0E0029890F8200020B9BB
:1015A000FFE7029800F0DEF8FFE70298016808689C
:1015B00040F00100086000F0FFFF0190FFE7029893
:1015C00000684068C007A8B9FFE700F0F5FF01997F
:1015D000401A0B280DD3FFE70299486A40F4003007
:1015E00048620299052081F8200001208DF80F0043
:1015F000B3E0E4E702980168086820F002000860A0
:1016000000F0DAFF0190FFE7029800684068800769
:10161000002815D5FFE700F0CFFF0199401A0B28ED
:101620000DD3FFE70299486A40F4003048620299FE
:10163000052081F8200001208DF80F008DE0E3E700
:101640000298007E012807D1FFE702980168086828
:1016500040F08000086006E002980168086820F009
:1016600080000860FFE70298407E012807D1FFE76D
:1016700002980168086840F04000086006E002989F
:101680000168086820F040000860FFE70298807E4B
:10169000012807D1FFE702980168086840F02000A0
:1016A000086006E002980168086820F020000860E1
:1016B000FFE70298C07E012807D1FFE70298016882
:1016C000086820F01000086006E0029801680868C9
:1016D00040F010000860FFE70298007F012807D162
:1016E000FFE702980168086840F00800086006E01B
:1016F00002980168086820F008000860FFE7029877
:10170000407F012807D1FFE702980168086840F090
:101710000400086006E002980168086820F00400F0
:101720000860FFE7029B19685A689868D3F80CC0F4
:1017300040EA0C00D3F810C040EA0C005B69184383
:10174000013A1043C861029900204862029A0121BF
:1017500082F820108DF80F00FFE79DF80F0004B00D
:1017600080BD000080B590B00F9000200E900D90CD
:101770000C900B900A900F98006846F20041C4F25A
:10178000000188424AD1FFE740F24040C2F2000027
:101790000168013101600068012812D1FFE7FFE70D
:1017A0000020099043F64000C4F20200016841F0B5
:1017B00000710160006800F0007009900998FFE76F
:1017C000FFE7FFE70020089043F63000C4F2020074
:1017D000016841F001010160006800F0010008901B
:1017E0000898FFE74FF4C0500A9002200B900020A9
:1017F00003900C9003200D9009200E900020C4F25D
:1018000002000AA900F0E4FC039A14200490114697
:1018100000F06AFF049800F05DFF65E00F98006833
:1018200046F60001C4F2000188425CD1FFE7FFE701
:101830000020079043F64000C4F20200016841F026
:1018400080610160006800F0806007900798FFE702
:1018500040F24040C2F200000168013101600068BE
:10186000012812D1FFE7FFE70020069043F6400071
:10187000C4F20200016841F000710160006800F0EC
:10188000007006900698FFE7FFE7FFE7002005904D
:1018900043F63000C4F20200016841F00201016029
:1018A000006800F0020005900598FFE74FF44050F3
:1018B0000A9002200B90002001900C9003200D90C4
:1018C00009200E9040F20040C4F202000AA900F084
:1018D0007FFC019A41200290114600F005FF02981A
:1018E00000F0F8FEFFE7FFE710B080BD81B0009088
:1018F00001B0704780B582B0019040F24000C2F262
:10190000000041F20801C2F200010AF0CBFF68BBFF
:10191000FFE740F2EC00C2F200000AF015FE98B9B1
:10192000FFE741F25470C2F20000006841F24871D2
:10193000C2F20001097809F03FF840F68830C2F29F
:10194000000080ED000AFFE741F24C70C2F2000097
:10195000006840F6BC61C2F20001097808F0A8FAFC
:1019600040F61C11C2F200010860FFE702B080BD22
:1019700081B0009001B0704780B584B0039040F210
:101980009400C2F2000041F23001C2F200010AF0FC
:1019900089FF00284FD1FFE740F25C10C2F200003F
:1019A0000AF0D2FD98B9FFE741F28870C2F2000058
:1019B000006841F24871C2F20001097808F038FE6F
:1019C00040F67470C2F2000080ED000AFFE740F2BA
:1019D0001C50C2F200000AF0A7FE58BBFFE740F619
:1019E000EC70C2F20000006840F6BC61C2F2000177
:1019F000097841F24872C2F20002127806F0D4FF70
:101A000040F23800C2F2000080ED000A90ED000ABA
:101A1000BDEEC00A10EE101A684641600023036054
:101A200040F29400C2F200004FF400711A460AF02E
:101A300061FFFFE7FFE704B080BD000081B00090C8
:101A400001B0704780B584B00290029890F82000F1
:101A500001282FD1FFE70299022081F82000029887
:101A60000168086820F00100086000F0A5FD019001
:101A7000FFE7029800684068C007A8B1FFE700F0E0
:101A80009BFD0199401A0B280DD3FFE70299486A84
:101A900040F4003048620299052081F820000120BE
:101AA0008DF80F000FE0E4E70299002048628DF8FE
:101AB0000F0008E00299486A40F4002048620120C3
:101AC0008DF80F00FFE79DF80F0004B080BD000007
:101AD00081B0009001B0704781B0009001B07047B4
:101AE00081B0009001B0704781B0009001B07047A4
:101AF00081B0009001B0704781B0009001B0704794
:101B000081B0009001B0704780B584B00290029817
:101B1000806D019000F050FD0090029890F8350023
:101B200002280DD0FFE7029980204865FFE702995F
:101B3000002081F83400FFE701208DF80F0055E008
:101B400002980168086820F0160008600298016891
:101B5000486920F0800048610298006C20B9FFE7D6
:101B60000298806C38B1FFE702980168086820F09D
:101B700008000860FFE702980168086820F001008B
:101B80000860FFE7029800680068C007C8B1FFE777
:101B900000F012FD0099401A062811D3FFE70299C0
:101BA000202048650299032081F83500FFE702995B
:101BB000002081F83400FFE703208DF80F0015E0C6
:101BC000E0E70298C16D3F20884001998860029942
:101BD000012081F83500FFE70299002081F83400E8
:101BE000FFE7FFE700208DF80F00FFE79DF80F00EB
:101BF00004B080BD82B00090009890F835000228B3
:101C000007D0FFE700998020486501208DF8070084
:101C10000EE00099052081F83500009801680868F9
:101C200020F001000860FFE700208DF80700FFE7C3
:101C30009DF8070002B0704780B586B0059000207F
:101C4000039040F21000C2F20000006848F2B511A3
:101C5000C1F64E31A0FB0110800A02900598806DFC
:101C6000019001980068049004980599C96DC840D6
:101C7000000700281AD5FFE70598006800684007AC
:101C8000002812D5FFE705980168086820F00400D5
:101C900008600598C16D0820884001998860059901
:101CA000486D40F001004865FFE7FFE7049805999B
:101CB000C96DC840C007A0B1FFE70598006840693A
:101CC000000600280CD5FFE70598C16D012088406B
:101CD000019988600599486D40F002004865FFE76A
:101CE000FFE704980599C96DC8404007002814D53E
:101CF000FFE7059800680068800700280CD5FFE71B
:101D00000598C16D04208840019988600599486D47
:101D100040F004004865FFE7FFE704980599C96DA6
:101D2000C840C006002847D5FFE70598006800684E
:101D3000000700283FD5FFE70598C16D10208840B7
:101D400001998860059800680068400300281AD54A
:101D5000FFE70598006800680003002809D4FFE742
:101D60000598006C20B1FFE70598016C8847FFE7F4
:101D700008E00598806C20B1FFE70598816C8847E2
:101D8000FFE7FFE716E0059800680068C005002837
:101D900007D4FFE705980168086820F0080008608C
:101DA000FFE70598006C20B1FFE70598016C8847B4
:101DB000FFE7FFE7FFE7FFE704980599C96DC84013
:101DC0008006002840F18D80FFE7059800680068D4
:101DD000C006002840F18480FFE70598C16D2020EF
:101DE000884001998860059890F83500052834D11D
:101DF000FFE705980168086820F01600086005985C
:101E00000168486920F0800048610598006C20B99D
:101E1000FFE70598806C38B1FFE70598016808680E
:101E200020F008000860FFE70598C16D3F2088405A
:101E3000019988600599012081F83500FFE705992F
:101E4000002081F83400FFE70598006D20B1FFE71E
:101E50000598016D8847FFE77BE0059800680068FA
:101E6000400300281AD5FFE70598006800680003C2
:101E7000002809D4FFE70598406C20B1FFE70598DA
:101E8000416C8847FFE708E00598C06B20B1FFE789
:101E90000598C16B8847FFE7FFE720E005980068D9
:101EA0000068C005002811D4FFE70598016808689C
:101EB00020F0100008600599012081F83500FFE747
:101EC0000599002081F83400FFE7FFE70598C06B13
:101ED00020B1FFE70598C16B8847FFE7FFE7FFE701
:101EE000FFE70598406DA0B3FFE70598406DC00778
:101EF00030B3FFE70599052081F8350005980168A2
:101F0000086820F001000860FFE7039801300390A3
:101F10000299884201D9FFE707E0FFE705980068CA
:101F20000068C0070028F0D1FFE70599012081F87B
:101F30003500FFE70599002081F83400FFE7FFE74F
:101F40000598C06C20B1FFE70598C16C8847FFE792
:101F5000FFE706B080BD000080B586B00490002089
:101F6000039000F029FB0290049820B9FFE70120BC
:101F70008DF81700A3E00498406A08B1FFE7FFE777
:101F80000499022081F83500FFE70499002081F8C8
:101F90003400FFE704980168086820F00100086039
:101FA000FFE7049800680068C00790B1FFE700F001
:101FB00003FB0299401A06280AD3FFE70499202060
:101FC00048650499032081F835008DF8170076E004
:101FD000E7E70498006800680390039848F23F011F
:101FE000CFF2100108400390049900914868D1F89D
:101FF00008C0CB680A6940EA0C00184310434A69DC
:1020000010438A691043CA691043096A014303985F
:10201000084303900498406A042808D1FFE7049914
:10202000C86A096B0143039808430390FFE70398CC
:10203000049909680860049800684069039003984F
:1020400020F0070003900498416A03980843039026
:102050000498406A04281AD1FFE70498816A03981B
:10206000084303900498C06A80B1FFE70498FEF724
:10207000B3FC50B1FFE70499402048650499012062
:1020800081F835008DF8170019E0FFE7FFE70398A6
:102090000499096848610498FEF772FC019004985D
:1020A000C16D3F20884001998860049900204865EF
:1020B000049A012182F835108DF81700FFE79DF88A
:1020C000170006B080BD000080B588B0069005916D
:1020D0000492039300208DF80B000698806D019008
:1020E000FFE7069890F83400012804D1FFE70220AA
:1020F0008DF81F0045E00699012081F83400FFE7C4
:10210000FFE7069890F8350001282BD1FFE70699E4
:10211000022081F835000699002048650698059947
:10212000049A039BFEF7D0FC0698C16D3F208840BF
:102130000199886006980168086840F016000860F8
:102140000698006C38B1FFE706980168086840F00F
:1021500008000860FFE706980168086840F0010081
:10216000086009E0FFE70699002081F83400FFE7E6
:1021700002208DF80B00FFE79DF80B008DF81F0083
:10218000FFE79DF81F0008B080BD000080B584B057
:10219000039000F011FA0290039801900198013029
:1021A00048B1FFE740F21800C2F200000178019840
:1021B00008440190FFE7FFE700F0FEF90299401A9A
:1021C0000199884201D2FFE7F6E704B080BD000024
:1021D0008EB00D900C9100200A90099008900B9001
:1021E000FFE70B980F2800F2CC81FFE70B99012045
:1021F00088400A900C9800680A990840099009984C
:102200000A99884240F0B881FFE70C98406800F0D6
:102210000300012807D0FFE70C98406800F0030096
:1022200002282FD1FFE70D98806808900B98410095
:10223000032000FA01F10898884308900C98C068C0
:102240000B99490000FA01F1089808430890089892
:102250000D9988600D98406808900B99012000FA4C
:1022600001F10898884308900C984068C0F300106A
:102270000B9900FA01F108980843089008980D9905
:102280004860FFE70C98406800F00300032818D06E
:10229000FFE70D98C06808900B984100032000FAF2
:1022A00001F10898884308900C9880680B994900C0
:1022B00000FA01F108980843089008980D99C86041
:1022C000FFE70C98406800F00300022826D1FFE7E2
:1022D0000D980B996FF0030202EA51010844006A5D
:1022E00008900B9800F0070081000F2000FA01F120
:1022F0000898884308900C9800690B9901F0070131
:10230000890000FA01F108980843089008980D998F
:102310000B9B02EA530211440862FFE70D98006824
:1023200008900B984100032000FA01F108988843B7
:1023300008900C98406800F003000B99490000FADF
:1023400001F108980843089008980D9908600C98C6
:1023500080798007002800F00E81FFE7FFE700206A
:10236000079043F64400C4F20200016841F4804142
:102370000160006800F4804007900798FFE70B9821
:1023800020F0030043F60801C4F201014058089010
:102390000B9800F0030081000F2000FA01F108986B
:1023A000884308900D980021C4F20201884203D1AD
:1023B000FFE7002006905EE00D9840F20041C4F275
:1023C0000201884203D1FFE70120059050E00D98FB
:1023D00040F60001C4F20201884203D1FFE7022067
:1023E000049042E00D9840F60041C4F20201884298
:1023F00003D1FFE70320039034E00D9841F2000180
:10240000C4F20201884203D1FFE70420029026E0D3
:102410000D9841F20041C4F20201884203D1FFE766
:102420000520019018E00D9841F60001C4F2020168
:10243000884203D1FFE7062000900AE00D9941F69B
:102440000042C4F202020820914208BF0720009017
:10245000FFE700980190FFE701980290FFE70298DC
:102460000390FFE703980490FFE704980590FFE7C7
:1024700005980690FFE70698C0B20B9901F003019A
:10248000890000FA01F108980843089008980B9910
:1024900021F0030143F60802C4F20102885043F61A
:1024A0000840C4F201000068089009990898884320
:1024B00008900C988079C006002805D5FFE7099997
:1024C000089808430890FFE7089843F60841C4F2CB
:1024D0000101086043F60C40C4F201000068089056
:1024E00009990898884308900C98807980060028FC
:1024F00005D5FFE70999089808430890FFE7089871
:1025000043F60C41C4F20101086043F60440C4F2F2
:1025100001000068089009990898884308900C9871
:1025200080798007002805D5FFE7099908980843B6
:102530000890FFE7089843F60441C4F201010860DF
:1025400043F60040C4F20100006808900999089819
:10255000884308900C988079C00728B1FFE7099953
:10256000089808430890FFE7089843F60041C4F232
:1025700001010860FFE7FFE7FFE70B9801300B90D0
:102580002FE60EB07047000082B00190ADF8021047
:102590008DF801209DF8010028B1FFE7BDF8020089
:1025A0000199886105E0BDF8020000040199886185
:1025B000FFE702B07047000041F28470C2F20000F1
:1025C0000068704740F21800C2F20000027841F241
:1025D0008471C2F20001086810440860704700006E
:1025E00080B543F60041C4F20201086840F400706F
:1025F0000860086840F480600860086840F48070F3
:102600000860032000F08AF80F2000F005F800F0C1
:102610003BF8002080BD000080B582B0009040F201
:102620001000C2F20000006840F21801C2F200017E
:102630000A784FF47A71B1FBF2F1B0FBF1F001F0DE
:10264000B9FA20B1FFE701208DF8070018E00098E3
:102650000F280DD8FFE700994FF0FF30002200F05F
:1026600043F8009840F21C01C2F20001086003E048
:1026700001208DF8070003E000208DF80700FFE738
:102680009DF8070002B080BD82B0FFE700200190F6
:1026900043F64400C4F20200016841F48041016045
:1026A000006800F4804001900198FFE7FFE70020F8
:1026B000009043F64000C4F20200016841F08051EE
:1026C0000160006800F0805000900098FFE702B0C1
:1026D0007047000080B582B08DF807009DF90700B3
:1026E0000AF0BEFB02B080BD80B586B08DF8170041
:1026F00004910392002002900AF0CAFB02909DF917
:102700001700019002980499039A03F06FFC0146A8
:1027100001980AF0C5FB06B080BD000080B582B00C
:10272000019001980AF0DEFB02B080BD80B584B054
:1027300002900191029820B9FFE701208DF80F0067
:1027400021E1019843F60041C4F20201096801F059
:102750000701884212D9FFE7019943F60040C4F20D
:1027600002000170006800F007000199884204D05F
:10277000FFE701208DF80F0005E1FFE702980078E0
:10278000800700282AD5FFE7029800784007002834
:1027900009D5FFE743F60801C4F20201086840F4D6
:1027A000E0500860FFE7029800780007002809D58C
:1027B000FFE743F60801C4F20201086840F46040F4
:1027C0000860FFE743F60801C4F20201086820F040
:1027D000F000029A926810430860FFE702980078C0
:1027E000C00700286ED0FFE702984068012811D189
:1027F000FFE743F60000C4F20200006800F4003175
:102800000020B0EB514F04D1FFE701208DF80F00FD
:10281000B9E02CE002984068022805D0FFE7029852
:102820004068032811D1FFE743F60000C4F202001C
:10283000006800F000710020B0EB516F04D1FFE799
:1028400001208DF80F009EE010E043F60000C4F276
:102850000200006800F002010020B0EB510F04D12B
:10286000FFE701208DF80F008DE0FFE7FFE743F65B
:102870000801C4F20201086820F00300029A5268BD
:1028800010430860FFF798FE0090FFE743F608004A
:10289000C4F20200006800F00C0002994968B0EB35
:1028A000810F0ED0FFE7FFF787FE0099401A41F233
:1028B0008931884204D3FFE703208DF80F0062E0DE
:1028C000E4E7FFE7019843F60041C4F2020109681A
:1028D00001F00701884212D2FFE7019943F6004058
:1028E000C4F202000170006800F0070001998842FC
:1028F00004D0FFE701208DF80F0044E0FFE70298C5
:102900000078400700280CD5FFE743F60801C4F221
:102910000201086820F4E050029AD268104308606F
:10292000FFE702980078000700280DD5FFE743F67F
:102930000801C4F20201086820F46040029A12699A
:1029400040EAC2000860FFE700F04CF843F60801D7
:10295000C4F202010968C9B20A094EF6D201C0F6F2
:102960000001895CC84040F21001C2F20001086019
:1029700040F21C00C2F200000068FFF74DFE00208C
:102980008DF80F00FFE79DF80F0004B080BD000038
:1029900040F21000C2F200000068704780B5FFF7F7
:1029A000F7FF43F60801C4F202010968C1F382226D
:1029B0004EF6E201C0F60001895CC84080BD00000F
:1029C00080B5FFF7E5FF43F60801C4F2020109688C
:1029D00089B24A0B4EF6E201C0F60001895CC8409C
:1029E00080BD000080B586B0002005900490039063
:1029F000029043F60800C4F20200006800F00C00E8
:102A00000146019140B1FFE7019804280AD0FFE791
:102A1000019808280CD04FE042F20040C0F2F400C8
:102A200002904FE047F64000C0F27D10029049E06E
:102A300043F60400C4F20200016801F03F01059171
:102A400000684002002813D5FFE743F60400C4F2F3
:102A500002000068C0F3881047F64001C0F27D1103
:102A6000A0FB0101059A0023FDF7ACFB049012E0E6
:102A700043F60400C4F202000068C0F3881042F27A
:102A80000041C0F2F401A0FB0101059A0023FDF70B
:102A900099FB0490FFE743F60400C4F202000068CB
:102AA00000F44031022000EBD130039004980399E8
:102AB000B0FBF1F0029005E042F20040C0F2F400F9
:102AC0000290FFE7029806B080BD000080B586B096
:102AD0000490049820B9FFE701208DF8170050E317
:102AE00004980078C007002800F0A580FFE743F6AF
:102AF0000800C4F20200006800F00C00042813D0A3
:102B0000FFE743F60800C4F20200006800F00C0082
:102B100008281ED1FFE743F60400C4F20200006853
:102B20004002002815D5FFE743F60000C4F202007A
:102B3000006800F400310020B0EB514F08D0FFE7EF
:102B40000498406820B9FFE701208DF8170018E3CA
:102B500070E0FFE704984068B0F5803F09D1FFE7D7
:102B600043F60001C4F20201086840F480300860B6
:102B700020E004984068B0F5A02F0DD1FFE743F6A0
:102B80000001C4F20201086840F48020086008686F
:102B900040F4803008600CE043F60001C4F202010A
:102BA000086820F480300860086820F480200860FD
:102BB000FFE7FFE7FFE704984068E8B1FFE7FFF7AA
:102BC000FBFC0390FFE743F60000C4F2020000683C
:102BD00000F400310020B0EB514F0CD1FFE7FFF7BC
:102BE000EBFC0399401A652804D3FFE703208DF816
:102BF0001700C6E2E7E71CE0FFF7DEFC0390FFE703
:102C000043F60000C4F20200006800F40031002026
:102C1000B0EB514F0CD0FFE7FFF7CEFC0399401A01
:102C2000652804D3FFE703208DF81700A9E2E7E742
:102C3000FFE7FFE7FFE7049800788007002840F1EE
:102C40009680FFE743F60800C4F20200006810F027
:102C50000C0F13D0FFE743F60800C4F2020000682F
:102C600000F00C0008282CD1FFE743F60400C4F262
:102C7000020000684002002823D4FFE743F600006A
:102C8000C4F20200006800F002010020B0EB510F16
:102C900009D0FFE70498C068012804D0FFE70120AD
:102CA0008DF817006DE243F60001C4F202010868D6
:102CB00020F0F800049A126940EAC2000860FFE7B9
:102CC00054E00498C06870B3FFE70021C4F24721C4
:102CD00001200860FFF770FC0390FFE743F6000057
:102CE000C4F20200006800F002010020B0EB510FB6
:102CF0000CD1FFE7FFF760FC0399401A032804D3C7
:102D0000FFE703208DF817003BE2E7E743F60001F9
:102D1000C4F20201086820F0F800049A126940EA3F
:102D2000C200086021E00021C4F2472100200860B1
:102D3000FFF742FC0390FFE743F60000C4F20200F5
:102D4000006800F002010020B0EB510F0CD0FFE74B
:102D5000FFF732FC0399401A032804D3FFE703204E
:102D60008DF817000DE2E7E7FFE7FFE7FFE70498BC
:102D70000078000700284BD5FFE70498406918B396
:102D8000FFE740F68061C4F2472101200860FFF7A9
:102D900013FC0390FFE743F67400C4F202000068DE
:102DA00000F002010020B0EB510F0CD1FFE7FFF75C
:102DB00003FC0399401A032804D3FFE703208DF88E
:102DC0001700DEE1E7E722E040F68061C4F2472128
:102DD00000200860FFF7F0FB0390FFE743F6740064
:102DE000C4F20200006800F002010020B0EB510FB5
:102DF0000CD0FFE7FFF7E0FB0399401A032804D348
:102E0000FFE703208DF81700BBE1E7E7FFE7FFE7E7
:102E1000049800784007002840F1CE80FFE70020AA
:102E20008DF8070043F64000C4F202000068C000BD
:102E3000002815D4FFE7FFE70020009043F640008C
:102E4000C4F20200016841F080510160006800F0A6
:102E5000805000900098FFE701208DF80700FFE701
:102E600047F20000C4F200000068C005002822D428
:102E7000FFE747F20001C4F20001086840F48070E7
:102E80000860FFF799FB0390FFE747F20000C4F2E8
:102E900000000068C00500280CD4FFE7FFF78CFB9A
:102EA0000399401A032804D3FFE703208DF8170085
:102EB00067E1EAE7FFE7FFE704988068012809D1A6
:102EC000FFE743F67001C4F20201086840F0010018
:102ED00008601FE00498806805280DD1FFE743F6DD
:102EE0007001C4F20201086840F00400086008683C
:102EF00040F0010008600CE043F67001C4F20201EA
:102F0000086820F001000860086820F004000860EC
:102F1000FFE7FFE7FFE704988068F8B1FFE7FFF7F6
:102F20004BFB0390FFE743F67000C4F20200006819
:102F300000F002010020B0EB510F0ED1FFE7FFF7C8
:102F40003BFB0399401A41F28931884204D3FFE7E1
:102F500003208DF8170014E1E5E71EE0FFF72CFBD6
:102F60000390FFE743F67000C4F20200006800F02F
:102F700002010020B0EB510F0ED0FFE7FFF71CFB62
:102F80000399401A41F28931884204D3FFE70320B4
:102F90008DF81700F5E0E5E7FFE79DF80700012849
:102FA00009D1FFE743F64001C4F20201086820F0AE
:102FB00080500860FFE7FFE704988069002800F070
:102FC000DC80FFE743F60800C4F20200006800F06E
:102FD0000C00082800F08580FFE70498806902282B
:102FE0005CD1FFE76021C4F2472100200860FFF7B1
:102FF000E3FA0390FFE743F60000C4F20200006822
:1030000000F000710020B0EB516F0CD0FFE7FFF72C
:10301000D3FA0399401A032804D3FFE703208DF85D
:103020001700AEE0E7E70499C869D1F820C04B6A01
:103030008A6A40EA0C0040EA8310D2034FF6FF731D
:103040009A43A2F580321043C96A40EA016043F610
:103050000401C4F2020108606021C4F2472101208A
:103060000860FFF7A9FA0390FFE743F60000C4F2F7
:103070000200006800F000710020B0EB516F0CD12D
:10308000FFE7FFF799FA0399401A032804D3FFE7F3
:1030900003208DF8170074E0E7E721E06021C4F217
:1030A000472100200860FFF787FA0390FFE743F607
:1030B0000000C4F20200006800F000710020B0EBD4
:1030C000516F0CD0FFE7FFF777FA0399401A0328F6
:1030D00004D3FFE703208DF8170052E0E7E7FFE78E
:1030E0004AE004988069012804D1FFE701208DF8A7
:1030F000170046E043F60400C4F2020000680290A4
:1031000004988069012831D0FFE7029800F480001C
:103110000499C969884229D1FFE7029800F03F006D
:103120000499096A884221D1FFE7029847F6C071E5
:1031300008400499496AB0EB811F17D1FFE7029854
:1031400000F440300499896AC9034FF6FF72914335
:10315000A1F58031884209D1FFE7029800F0706044
:103160000499C96AB0EB016F04D0FFE701208DF824
:10317000170006E0FFE7FFE7FFE700208DF81700E4
:10318000FFE79DF8170006B080BD000080B584B051
:103190000290029820B9FFE701208DF80F0071E03E
:1031A0000298406A60B9FFE702984068B0F5827FF4
:1031B00001D1FFE703E002990020C861FFE705E0C5
:1031C00002990020086102994861FFE702990020F6
:1031D0008862029890F8510040B9FFE702990020F8
:1031E00081F85000029800F051F8FFE702990220A0
:1031F00081F8510002980168086820F040000860DA
:10320000029A019211685068D2F808C0D36800F49D
:1032100082700CF4044C604403F400631844136996
:1032200003F002031844536903F00103184493693F
:1032300003F400731844D36903F038031844136A85
:1032400003F080031843926A02F4005210430860AE
:10325000029A508B00F004001168526A02F01002CA
:103260001044486002980168C86920F40060C86191
:10327000029900204865029A012182F851108DF8C8
:103280000F00FFE79DF80F0004B080BD80B588B047
:1032900007900020069005900490039002900798F4
:1032A000006843F20001C4F20101884233D1FFE714
:1032B000FFE70020019043F64400C4F202000168D9
:1032C00041F480510160006800F480500190019841
:1032D000FFE7FFE70020009043F63000C4F2020051
:1032E000016841F001010160006800F001000090F8
:1032F0000098FFE7E0200290022003900020049055
:1033000003200590052006900020C4F2020002A9C7
:10331000FEF75EFFFFE708B080BD000080B588B013
:1033200006900591ADF812200393069890F851008D
:10333000012804D0FFE702208DF81F0011E1059855
:1033400020B1FFE7BDF8120020B9FFE701208DF89A
:103350001F0006E106984068B0F5827F16D1FFE7AE
:103360000698806890B9FFE70699042081F851001B
:103370000698059ABDF812300399EC46CCF8001077
:10338000114600F045FA8DF81F00EAE0FFF714F946
:103390000290FFE7069890F85000012804D1FFE75B
:1033A00002208DF81F00DCE00699012081F8500012
:1033B000FFE7FFE70699042081F8510006990020F5
:1033C00048650599069A9163BDF81210069A91878F
:1033D000BDF81210069AD187069908630699888667
:1033E0000699C88606990864069948640698806814
:1033F000B0F5004F0DD1FFE706980168086820F08E
:103400004000086006980168086820F48040086061
:10341000FFE706980068006800F04000402807D0E9
:10342000FFE706980168086840F040000860FFE781
:103430000698C068D0BBFFE7FFE70698C08FA0B32F
:10344000FFE7069800688068C00778B1FFE7069834
:103450000068007B0699896B08700699886B0130BB
:1034600088630699C88F0138C8871DE0FFF7A4F864
:103470000299401A0399884204D3FFE70398013068
:1034800018B9FFE7039870B9FFE70699012081F8A2
:103490005100FFE70699002081F85000FFE7032064
:1034A0008DF81F005DE0FFE7C7E739E0FFE706980A
:1034B000C08FA0B3FFE7069800688068C00778B1A6
:1034C000FFE706980068C0680699896B088006992E
:1034D000886B023088630699C88F0138C8871DE061
:1034E000FFF76AF80299401A0399884204D3FFE76C
:1034F0000398013018B9FFE7039870B9FFE7069900
:10350000012081F85100FFE70699002081F8500062
:10351000FFE703208DF81F0023E0FFE7C7E7FFE781
:1035200006980399029A02F099FD20B1FFE70699E7
:1035300020204865FFE70699012081F85100FFE748
:103540000699002081F85000FFE70698406D20B1F1
:10355000FFE701208DF81F0003E000208DF81F0019
:10356000FFE79DF81F0008B080BD000080B588B05F
:1035700006900591ADF812200393FFF71DF8029015
:10358000BDF81200ADF80600069890F85100012829
:1035900004D0FFE702208DF81F0034E1059820B128
:1035A000FFE7BDF8120020B9FFE701208DF81F00EA
:1035B00029E1FFE7069890F85000012804D1FFE7C1
:1035C00002208DF81F001EE10699012081F85000AD
:1035D000FFE7FFE70699032081F8510006990020D4
:1035E00048650599069A1163BDF81210069A9186EE
:1035F000BDF81210069AD1860699886306998887C5
:103600000699C887069948640699086406988068F0
:10361000B0F5004F0DD1FFE706980168086820F06B
:103620004000086006980168086840F4804008601F
:10363000FFE706980068006800F04000402807D0C7
:10364000FFE706980168086840F040000860FFE75F
:103650000698C068B0F5006F51D1FFE70698406842
:1036600028B1FFE7BDF8060001280ED1FFE7069854
:103670000168006B0088C8600699086B0230086317
:103680000699C88E0138C886FFE7FFE70698C08E06
:10369000A0B3FFE7069800688068800700280ED571
:1036A000FFE706980168006B0088C8600699086B00
:1036B000023008630699C88E0138C8861DE0FEF7FF
:1036C0007BFF0299401A0399884204D3FFE70398CD
:1036D000013018B9FFE7039870B9FFE70699012098
:1036E00081F85100FFE70699002081F85000FFE7BC
:1036F00003208DF81F0086E0FFE7C7E750E006983B
:10370000406828B1FFE7BDF8060001280ED1FFE7A9
:1037100006980168006B007808730699086B013001
:1037200008630699C88E0138C886FFE7FFE7069848
:10373000C08EA0B3FFE70698006880688007002865
:103740000ED5FFE706980168006B007808730699AC
:10375000086B013008630699C88E0138C8861DE0E1
:10376000FEF72AFF0299401A0399884204D3FFE723
:103770000398013018B9FFE7039870B9FFE706997D
:10378000012081F85100FFE70699002081F85000E0
:10379000FFE703208DF81F0035E0FFE7C7E7FFE7ED
:1037A00006980399029A02F0CBFC20B1FFE7069934
:1037B00020204865FFE70698806870B9FFE7FFE7BB
:1037C0000020009006980068C06800900698006885
:1037D000806800900098FFE7FFE70699012081F8D4
:1037E0005100FFE70699002081F85000FFE7069896
:1037F000406D20B1FFE701208DF81F0003E000209D
:103800008DF81F00FFE79DF81F0008B080BD000085
:1038100080B58CB0DDF838C00A9009910892ADF8F7
:103820001E3001200390FEF7C7FE04900A9890F81E
:1038300051008DF817000A9840680690BDF81E00E8
:10384000ADF81C009DF81700012812D0FFE706987C
:10385000B0F5827F09D1FFE70A98806828B9FFE7B1
:103860009DF81700042804D0FFE702208DF82F00F0
:103870009BE1099838B1FFE7089820B1FFE7BDF850
:103880001E0020B9FFE701208DF82F008DE1FFE732
:103890000A9890F85000012804D1FFE702208DF823
:1038A0002F0082E10A99012081F85000FFE7FFE72D
:1038B0000A9890F85100042805D0FFE70A990520DE
:1038C00081F85100FFE70A990020486508990A9A93
:1038D0009163BDF81E100A9AD187BDF81E100A9A8E
:1038E000918709990A9A1163BDF81E100A9AD18628
:1038F000BDF81E100A9A91860A9908640A994864CC
:103900000A980068006800F04000402807D0FFE7F0
:103910000A980168086840F040000860FFE70A98CC
:10392000C068B0F5006F40F08180FFE70A984068FA
:1039300028B1FFE7BDF81C0001280ED1FFE70A9867
:103940000168006B0088C8600A99086B0230086340
:103950000A99C88E0138C886FFE7FFE70A98C18E2A
:103960000120019039B9FFE70A98C08F002818BFDD
:1039700001200190FFE70198C007002855D0FFE71C
:103980000A98006880688007002818D5FFE70A9821
:10399000C08EA0B1FFE70398012810D1FFE70A9875
:1039A0000168006B0088C8600A99086B02300863E0
:1039B0000A99C88E0138C88600200390FFE70A984C
:1039C00000688068C007A8B1FFE70A98C08F88B177
:1039D000FFE70A980068C0680A99896B08800A990D
:1039E000886B023088630A99C88F0138C887012024
:1039F0000390FFE7FEF7E0FD0499401A0E99884214
:103A000012D3FFE70E98013070B1FFE70A99012049
:103A100081F85100FFE70A99002081F85000FFE784
:103A200003208DF82F00C0E098E782E00A984068F4
:103A300028B1FFE7BDF81C0001280ED1FFE70A9866
:103A40000168006B007808730A99086B01300863FD
:103A50000A99C88E0138C886FFE7FFE70A98C18E29
:103A60000120009039B9FFE70A98C08F002818BFDD
:103A700001200090FFE70098C007002858D0FFE71A
:103A80000A98006880688007002818D5FFE70A9820
:103A9000C08EA0B1FFE70398012810D1FFE70A9874
:103AA0000168006B007808730A99086B013008639D
:103AB0000A99C88E0138C88600200390FFE70A984B
:103AC00000688068C007A8B1FFE70A98C08F88B176
:103AD000FFE70A980068C0680A99896B08700A991C
:103AE000886B013088630A99C88F0138C887012024
:103AF0000390FFE7FEF760FD0499401A0E99884293
:103B000004D3FFE70E98013018B9FFE70E9870B99B
:103B1000FFE70A99012081F85100FFE70A99002088
:103B200081F85000FFE703208DF82F003DE095E776
:103B3000FFE70A980E99049A02F002FB68B1FFE7CA
:103B40000A9920204865FFE70A99002081F8500073
:103B5000FFE701208DF82F0027E00A98806870B9F0
:103B6000FFE7FFE7002002900A980068C068029013
:103B70000A980068806802900298FFE7FFE70A99B8
:103B8000012081F85100FFE70A99002081F85000D8
:103B9000FFE70A98406D20B1FFE701208DF82F0064
:103BA00003E000208DF82F00FFE79DF82F000CB0F8
:103BB00080BD000080B582B00190019802F0BEFB8C
:103BC00002B080BD81B0009001B0704781B000901C
:103BD00001B0704785B003900291FFE7039890F819
:103BE0003C00012804D1FFE702208DF813007EE09D
:103BF0000399012081F83C00FFE7FFE703990220C9
:103C000081F83D00039800684068019003980068BF
:103C100080680090019820F070000190029801687F
:103C20000198084301900198039909684860039836
:103C300000680021C4F2010188423CD0FFE70398EC
:103C40000068B0F1804F36D0FFE70398006840F27B
:103C50000041C4F2000188422DD0FFE703980068BC
:103C600040F60001C4F20001884224D0FFE7039827
:103C7000006840F60041C4F2000188421BD0FFE713
:103C80000398006840F20041C4F20101884212D05A
:103C9000FFE70398006844F20001C4F20101884282
:103CA00009D0FFE70398006841F60001C4F2000163
:103CB00088420ED1FFE7009820F080000090029823
:103CC000416800980843009000980399096888604B
:103CD000FFE70399012081F83D00FFE703990020E9
:103CE00081F83C00FFE700208DF81300FFE79DF806
:103CF000130005B07047000080B582B000900098B6
:103D000020B9FFE701208DF807003FE0009890F808
:103D10003D0040B9FFE70099002081F83C00009881
:103D200000F038F8FFE70099022081F83D00009983
:103D300051F8040B02F072FB0099012081F8460053
:103D4000FFE70099012081F83E00009981F83F00CB
:103D5000009981F84000009981F84100FFE7FFE7F2
:103D60000099012081F84200009981F843000099F0
:103D700081F84400009981F84500FFE7009901208F
:103D800081F83D0000208DF80700FFE79DF807004F
:103D900002B080BD80B590B00F900F9800680021F0
:103DA000C4F2010188421BD1FFE7FFE700200E901B
:103DB00043F64400C4F20200016841F001010160D1
:103DC000006800F001000E900E98FFE7192008909F
:103DD00000221146FEF788FC0898FEF77BFCBFE046
:103DE0000F980068B0F1804F1BD1FFE7FFE700207C
:103DF0000D9043F64000C4F20200016841F0010159
:103E00000160006800F001000D900D98FFE71C2094
:103E1000079000221146FEF767FC0798FEF75AFC50
:103E20009DE00F98006840F60041C4F2000188420E
:103E30001BD1FFE7FFE700200C9043F64000C4F2DF
:103E40000200016841F008010160006800F008000C
:103E50000C900C98FFE73220069000221146FEF7E6
:103E600043FC0698FEF736FC78E00F98006841F2B4
:103E70000001C4F2000188421BD1FFE7FFE70020E8
:103E80000B9043F64000C4F20200016841F01001BB
:103E90000160006800F010000B900B98FFE73620DF
:103EA000059000221146FEF71FFC0598FEF712FC54
:103EB00053E00F98006841F20041C4F200018842CB
:103EC0001BD1FFE7FFE700200A9043F64000C4F251
:103ED0000200016841F020010160006800F020004C
:103EE0000A900A98FFE73720049000221146FEF757
:103EF000FBFB0498FEF7EEFB2EE00F98006840F203
:103F00000041C4F20101884225D1FFE7FFE700200C
:103F1000099043F64400C4F20200016841F0020136
:103F20000160006800F0020009900998FFE72B206B
:103F30000190002202921146FEF7D6FB0198FEF78F
:103F4000C9FB029A2C2003901146FEF7CDFB039883
:103F5000FEF7C0FBFFE7FFE7FFE7FFE7FFE7FFE74D
:103F600010B080BD83B00190019890F83D00012809
:103F700004D0FFE701208DF80B006AE001990220D0
:103F800081F83D0001980168C86840F00100C860F0
:103F9000019800680021C4F2010188423CD0FFE78B
:103FA00001980068B0F1804F36D0FFE701980068B3
:103FB00040F20041C4F2000188422DD0FFE7019891
:103FC000006840F60001C4F20001884224D0FFE7F7
:103FD0000198006840F60041C4F2000188421BD0FD
:103FE000FFE70198006840F20041C4F201018842F5
:103FF00012D0FFE70198006844F20001C4F2010109
:10400000884209D0FFE70198006841F60001C4F238
:104010000001884212D1FFE701980068806800F033
:10402000070000900098062807D0FFE70198016874
:10403000086840F001000860FFE706E001980168A9
:10404000086840F001000860FFE700208DF80B00D1
:10405000FFE79DF80B0003B07047000080B586B005
:104060000490039100208DF80B00FFE7049890F86E
:104070003C00012804D1FFE702208DF81700ABE0D7
:104080000499012081F83C00FFE7FFE70499022032
:1040900081F83D000498006880680190019820F044
:1040A00077000190019820F47F40019001980499D5
:1040B00009688860039800680090002872D0FFE7C4
:1040C000009810286ED0FFE7009820286AD0FFE7FC
:1040D0000098302866D0FFE70098402855D0FFE7C9
:1040E0000098502837D0FFE70098602840D0FFE7BD
:1040F000009870280BD0FFE70098B0F5805F05D0DE
:10410000FFE70098B0F5005F16D052E055E0049844
:104110000068039B5A689968DB6802F051FA0498BA
:10412000006880680190019840F077000190019844
:1041300004990968886040E004980068039B5A6805
:104140009968DB6802F03CFA04980168886840F4DA
:104150008040886031E004980068039A5168D26812
:1041600002F05EFA04980068502102F043FA24E05D
:1041700004980068039A5168D26802F079FA0498AA
:104180000068602102F036FA17E004980068039A8C
:104190005168D26802F044FA04980068402102F0A5
:1041A00029FA0AE0049800680399096802F022FAE3
:1041B00003E001208DF80B00FFE70499012081F84E
:1041C0003D00FFE70499002081F83C00FFE79DF8DF
:1041D0000B008DF81700FFE79DF8170006B080BDB3
:1041E00081B0009001B0704780B584B0039003980F
:1041F0000068C068029003980068006901909DF80B
:1042000004008007002824D5FFE79DF808008007F8
:1042100000281DD5FFE7039801686FF002000861D0
:10422000039901200877039800688069800720B10E
:10423000FFE70398FFF7D4FF06E0039800F0E2F8E9
:10424000039800F0E3F8FFE7039900200877FFE701
:10425000FFE79DF804004007002825D5FFE79DF8FB
:104260000800400700281ED5FFE7039801686FF09B
:1042700004000861039902200877039800688069A8
:1042800010F4407F04D0FFE70398FFF7A9FF06E092
:10429000039800F0B7F8039800F0B8F8FFE7039927
:1042A00000200877FFE7FFE79DF8040000070028DB
:1042B00024D5FFE79DF80800000700281DD5FFE77B
:1042C000039801686FF008000861039904200877DB
:1042D00003980068C069800720B1FFE70398FFF7E3
:1042E0007FFF06E0039800F08DF8039800F08EF849
:1042F000FFE7039900200877FFE7FFE79DF8040038
:10430000C006002825D5FFE79DF80800C006002854
:104310001ED5FFE7039801686FF01000086103994C
:104320000820087703980068C06910F4407F04D023
:10433000FFE70398FFF754FF06E0039800F062F8E8
:10434000039800F063F8FFE7039900200877FFE780
:10435000FFE79DF80400C00778B1FFE79DF808006B
:10436000C00748B1FFE7039801686FF001000861DA
:10437000039800F04FF8FFE7FFE79DF80400000600
:10438000002810D5FFE79DF808000006002809D591
:10439000FFE7039801686FF0800008610398FFF75A
:1043A00011FCFFE7FFE79DF804004006002810D548
:1043B000FFE79DF808004006002809D5FFE70398AD
:1043C00001686FF040000861039800F099F9FFE779
:1043D000FFE79DF804008006002810D5FFE79DF850
:1043E00008008006002809D5FFE7039801686FF0F0
:1043F000200008610398FFF7E9FBFFE7FFE704B03F
:1044000080BD000081B0009001B0704781B0009085
:1044100001B0704780B584B00390039841F2B03189
:10442000C2F20001884203D1FFE703F061FCFFE71D
:10443000039841F28841C2F20001884267D1FFE748
:1044400040F2CC10C2F20000007838B9FFE740F625
:10445000FC40C2F2000005F0B1F9FFE740F6FC4075
:10446000C2F2000005F0CAF940F6E570C2F20000A1
:10447000007849F69811C1F699114CF6CD42CCF668
:10448000CC4200FB02104FEA7000884237D8FFE7A9
:1044900040F6E370C2F200000078D0B1FFE740F2CE
:1044A0005C10C2F20000022108F01CF840F6E07136
:1044B000C2F2000108780130087040F6E571C2F2DE
:1044C00000010020087040F6E371C2F2000108709C
:1044D00014E040F2EC00C2F200000121029108F069
:1044E00001F8029840F6E371C2F20001087040F64C
:1044F000E571C2F2000100200870FFE7FFE740F617
:10450000E571C2F20001087801300870FFE70398F6
:1045100041F2D041C2F20001884207D1FFE740F2E8
:10452000D010C2F2000007F02FFCFFE7039841F221
:10453000F831C2F20001884240F08780FFE740F680
:10454000E470C2F200000078C007E0BBFFE740F271
:10455000EC00C2F20000B0F90A00012832D1FFE7F6
:1045600040F60030C2F20000007890B9FFE740F258
:10457000EC00C2F2000001219FED602AB0EE420A79
:10458000F0EE420AB0EE421AF0EE421A07F008FFCF
:1045900017E040F68830C2F2000090ED000AB1EE5C
:1045A000402A40F2EC00C2F2000001219FED531AB4
:1045B000F6EE001AB0EE410AF0EE410A07F0F0FE06
:1045C000FFE7FFE739E040F25C10C2F20000B0F90B
:1045D0000A00012830D1FFE740F6F840C2F200009F
:1045E000007890B9FFE740F25C10C2F200000221AF
:1045F0009FED422AB0EE420AF0EE420AB0EE421AB5
:10460000F0EE421A07F0CCFE15E040F67470C2F2EC
:10461000000090ED002A40F25C10C2F2000002217E
:104620009FED361AF6EE001AB0EE410AF0EE410A9E
:1046300007F0B6FEFFE7FFE7FFE740F6E471C2F2DE
:104640000001087801300870FFE7039841F2185123
:10465000C2F2000188424FD1FFE740F2D010C2F20F
:104660000000D0F8042240F22001C2F200010A60EA
:10467000D0F808224A60D0F80C228A60D0F81002E4
:10468000C86043F23330C4F2C310086101F010FC7B
:1046900040F6BC60C2F20000007870B9FFE76846DF
:1046A00000234360036040F24000C2F200004FF478
:1046B00000711A4608F01EF91DE041F24C70C2F27A
:1046C0000000006890ED041A90ED050ABDEEC11AD5
:1046D00011EE102ABDEEC00A10EE103A6946002015
:1046E0004860086040F24000C2F200004FF40071E0
:1046F00008F000F9FFE7FFE704B080BD000000000C
:1047000081B0009001B0704782B00190ADF8021006
:1047100002B0704781B0009001B0704780B588B09A
:10472000079001200690FFE7FFE70798006850E830
:10473000030F20F4F0700590FFE7059907980268D1
:1047400042E803100028F0D1FFE7FFE7FFE7FFE7AB
:104750000798006850E8050F20F001000490FFE77B
:1047600004990798026842E805100028F0D1FFE795
:10477000FFE70798006B012814D1FFE7FFE7FFE789
:104780000798006850E8030F20F010000390FFE73F
:1047900003990798026842E803100028F0D1FFE768
:1047A000FFE7FFE70798806BA8B1FFE7079800686D
:1047B00040690006002808D5FFE70798816B46F698
:1047C0006910C0F60000086504E00798816B0020BE
:1047D0000865FFE7FFE70798C06BA8B1FFE70798F8
:1047E000006840694006002808D5FFE70798C16BBC
:1047F00046F66100C0F60000086504E00798C16B4A
:1048000000200865FFE7FFE7079800684069000699
:10481000002827D5FFE7FFE7FFE70798006850E883
:10482000050F20F080000290FFE7029907980268C8
:1048300042E805100028F0D1FFE7FFE70798806BFA
:1048400078B1FFE70798806BFDF7D4F928B1FFE74F
:104850000798816B0020086502E000200690FFE7C2
:10486000FFE7FFE70798006840694006002829D560
:10487000FFE7FFE7FFE70798006850E8050F20F023
:1048800040000190FFE701990798026842E805108F
:104890000028F0D1FFE7FFE70798C06B88B1FFE77A
:1048A0000798C06BFDF7A6F938B1FFE70798C16B11
:1048B000002008650120069002E000200690FFE736
:1048C000FFE7FFE70698012814D1FFE707990020CA
:1048D000C8840799C88507994864079A202182F8F7
:1048E0004110079A82F84210079908630798FFF76A
:1048F00011FFFFE7002008B080BD000080B584B044
:10490000039000200290039800684069C0B2C0097B
:104910000290039890F84100212823D1FFE70298E4
:1049200000B3FFE7FFE7FFE70398006850E8050FD3
:1049300020F080000190FFE701990398026842E8A7
:1049400005100028F0D1FFE7FFE70398806B28B13E
:10495000FFE70398806BFDF7D7F8FFE7039802F0B5
:1049600099F8FFE7039800684069C0F3801002904F
:10497000039890F84200222823D1FFE7029800B361
:10498000FFE7FFE7FFE70398006850E8050F20F016
:1049900040000090FFE700990398026842E8051084
:1049A0000028F0D1FFE7FFE70398C06B28B1FFE7CD
:1049B0000398C06BFDF7A8F8FFE7039802F00CF826
:1049C000FFE7002004B080BD81B0009001B07047C7
:1049D00080B592B0119011980068006810901198FD
:1049E0000068C0680F901198006840690E90002020
:1049F0000D900C90109800F00F000D900D9888B954
:104A0000FFE79DF84000800600280AD5FFE79DF8E3
:104A10003C008006002804D5FFE7119802F056F804
:104A200002E2FFE70D98002800F0C280FFE79DF842
:104A30003800C00738B9FFE7BDF83C0010F4907F9C
:104A400000F0B680FFE79DF84000C00758B1FFE7CF
:104A50009DF83D00C00730B1FFE71199486C40F068
:104A600001004864FFE79DF84000400700280BD58F
:104A7000FFE79DF83800C00730B1FFE71199486C97
:104A800040F002004864FFE79DF8400080070028DE
:104A90000BD5FFE79DF83800C00730B1FFE711994B
:104AA000486C40F004004864FFE79DF840000007B0
:104AB000002811D5FFE79DF83C008006002805D4AA
:104AC000FFE79DF83800C00730B1FFE71199486C47
:104AD00040F008004864FFE71198406C002866D059
:104AE000FFE79DF84000800600280AD5FFE79DF803
:104AF0003C008006002804D5FFE7119801F0E6FF8E
:104B0000FFE7119800684069C0F380100C9011987D
:104B1000406C0007002804D4FFE70C9800283ED022
:104B2000FFE7119801F058FF1198006840694006AE
:104B300000282FD5FFE7FFE7FFE71198006850E84E
:104B4000050F20F040000B90FFE70B9911980268C9
:104B500042E805100028F0D1FFE7FFE71198C06B8D
:104B600098B1FFE71198C16B46F2D560C0F600001E
:104B700008651198C06BFDF73DF828B1FFE7119863
:104B8000C06B016D8847FFE703E01198FFF71CFF3A
:104B9000FFE703E01198FFF717FFFFE706E0119822
:104BA000FFF712FF119900204864FFE7FFE73BE1A0
:104BB0001198006B012840F01781FFE79DF8400035
:104BC000C006002840F11081FFE79DF83C00C006B8
:104BD000002840F10981FFE7FFE700200A901198C3
:104BE000006800680A901198006840680A900A9866
:104BF000FFE71198006840694006002840F19A805C
:104C0000FFE71198C06B00684068ADF82600BDF85A
:104C10002600002875D0FFE7BDF826001199898D80
:104C200088426EDAFFE7BDF826001199C885119811
:104C3000C06BC069B0F5807F58D0FFE7FFE7FFE7A2
:104C40001198006850E8030F20F480700890FFE787
:104C500008991198026842E803100028F0D1FFE794
:104C6000FFE7FFE7FFE71198006850E8050F20F025
:104C700001000790FFE707991198026842E80510C4
:104C80000028F0D1FFE7FFE7FFE7FFE71198006892
:104C900050E8050F20F040000690FFE706991198B4
:104CA000026842E805100028F0D1FFE7FFE71199FC
:104CB000202081F84200119900200863FFE7FFE7F8
:104CC0001198006850E8030F20F010000590FFE7EE
:104CD00005991198026842E803100028F0D1FFE717
:104CE000FFE71198C06BFCF70FFFFFE71199022057
:104CF00048631198818DC28D891A89B2FFF704FD2E
:104D000017E0BDF826001199898D884210D1FFE780
:104D10001198C06BC069B0F5807F08D1FFE7119989
:104D2000022048631198818DFFF7EEFCFFE7FFE753
:104D3000FFE779E01199888DC98D401AADF812000E
:104D40001198C08D00284ED0FFE7BDF81200002852
:104D500049D0FFE7FFE7FFE71198006850E8030F2D
:104D600020F490700390FFE703991198026842E8DD
:104D700003100028F0D1FFE7FFE7FFE7FFE71198F6
:104D8000006850E8050F20F001000290FFE702994B
:104D90001198026842E805100028F0D1FFE7FFE70C
:104DA0001199202081F84200119900200863FFE743
:104DB000FFE71198006850E8030F20F01000019001
:104DC000FFE701991198026842E803100028F0D12A
:104DD000FFE7FFE71199022048631198BDF8121010
:104DE000FFF792FCFFE71FE09DF840000006002857
:104DF0000AD5FFE79DF83C000006002804D5FFE730
:104E0000119802F04DF80FE09DF840004006002890
:104E10000AD5FFE79DF83C004006002804D5FFE7CF
:104E2000119801F023FEFFE712B080BD80B582B07B
:104E30000090009820B9FFE701208DF8070040E0BE
:104E40000098806908B1FFE700E0FFE7009890F85C
:104E5000410040B9FFE70099002081F84000009828
:104E600000F034F8FFE70099242081F84100009811
:104E70000168C86820F40050C860009801F0DAFEAC
:104E800000980168086920F4904008610098016862
:104E9000486920F02A00486100980168C86840F419
:104EA0000050C860009900204864009A202182F8D0
:104EB0004110009A82F84210009948638DF807006B
:104EC000FFE79DF8070002B080BD000080B5A4B0E8
:104ED000239000202290219020901F901E902398D4
:104EE000006845F20001C4F20001884240F0BD8034
:104EF000FFE7FFE700201D9043F64000C4F20200E8
:104F0000016841F480110160006800F480101D9078
:104F10001D98FFE7FFE700201C9043F63000C4F225
:104F20000200016841F004010160006800F0040023
:104F30001C901C98FFE7FFE700201B9043F6300011
:104F4000C4F20200016841F008010160006800F04D
:104F500008001B901B98FFE74FF480501E90022022
:104F60000D901F9000201190209003200E90219012
:104F700008200F90229040F60000C4F202001EA903
:104F80001091FDF725F9DDF834C00E9A0F981099AD
:104F9000119B4FF0040ECDF878E0CDF87CC0209343
:104FA0002192229040F60040C4F20200FDF710F971
:104FB000119941F25800C2F20000129046F210021C
:104FC000C4F2020202604FF0006242608160C16080
:104FD0004FF48062026141618161C161016241629D
:104FE000FCF7BAFF18B1FFE7FBF798FDFFE7FFE713
:104FF000239841F25801C2F20001C16323988863EB
:10500000FFE741F2B800C2F200000C9046F2B8018E
:10501000C4F2020101604FF00061416040218160F3
:105020000021C1604FF48062026141618161C16110
:1050300001624162FCF790FF18B1FFE7FBF76EFDDC
:10504000FFE7FFE7239841F2B801C2F20001816354
:1050500023988863FFE735200B9000221146FDF767
:1050600043FB0B98FDF736FB1BE22398006841F2E7
:105070000001C4F20101884268D1FFE7FFE7002088
:105080001A9043F64400C4F20200016841F0100196
:105090000160006800F010001A901A98FFE7FFE71F
:1050A0000020199043F63000C4F20200016841F07C
:1050B00001010160006800F0010019901998FFE7F4
:1050C0004FF4C0601E9002201F900120209003200A
:1050D0002190072022900020C4F202001EA9FDF7B3
:1050E00077F841F21810C2F200000A9046F24041EF
:1050F000C4F2020101604FF0006141600021816053
:10510000C1604FF48062026141618161C1614FF40D
:10511000403202624162FCF71FFF18B1FFE7FBF764
:10512000FDFCFFE7FFE7239841F21811C2F20001EE
:10513000C16323988863FFE7252009900022114668
:10514000FDF7D2FA0998FDF7C5FAA9E1239800689E
:1051500044F20041C4F20001884240F09480FFE72D
:10516000FFE70020189043F64000C4F202000168F7
:1051700041F400310160006800F400301890189884
:10518000FFE7FFE70020179043F63000C4F202006B
:10519000016841F001010160006800F00100179012
:1051A0001798FFE70C201E9002201F9001202090EE
:1051B00003202190072022900020C4F202001EA9A3
:1051C000FDF706F841F27810C2F20000089046F2AE
:1051D0008801C4F2020101604FF0006141600021CA
:1051E0008160C1604FF48062026141618161C1618F
:1051F0004FF4403202624162FCF7AEFE18B1FFE7A5
:10520000FBF78CFCFFE7FFE7239841F27811C2F22D
:105210000001C16323988863FFE741F2D810C2F20E
:105220000000079046F2A001C4F2020101604FF0B5
:1052300000614160402181600021C1604FF48062C3
:10524000026141618161C1614FF440320262416299
:10525000FCF782FE18B1FFE7FBF760FCFFE7FFE712
:10526000239841F2D811C2F2000181632398886328
:10527000FFE72620069000221146FDF735FA069832
:10528000FDF728FA0BE12398006844F60001C4F208
:105290000001884240F09280FFE7FFE7002016906F
:1052A00043F64000C4F20200016841F4802101602D
:1052B000006800F4802016901698FFE7FFE70020B2
:1052C000159043F63000C4F20200016841F002017B
:1052D0000160006800F0020015901598FFE74FF498
:1052E00040601E9002201F900120209003202190FA
:1052F0000720229040F20040C4F202001EA9FCF7F1
:1053000067FF41F23820C2F20000059046F2280102
:10531000C4F2020101604FF0006141600021816030
:10532000C1604FF48062026141618161C1610162CB
:105330004162FCF711FE18B1FFE7FBF7EFFBFFE757
:10534000FFE7239841F23821C2F20001C16323989C
:105350008863FFE741F29820C2F20000049046F211
:105360005801C4F2020101604FF000614160402128
:1053700081600021C1604FF48062026141618161FE
:10538000C16101624162FCF7E7FD18B1FFE7FBF77D
:10539000C5FBFFE7FFE7239841F29821C2F2000125
:1053A000816323988863FFE727200390002211463A
:1053B000FDF79AF90398FDF78DF96FE023980068DF
:1053C00041F20041C4F20101884266D1FFE7FFE7E4
:1053D0000020149043F64400C4F20200016841F03A
:1053E00020010160006800F0200014901498FFE78D
:1053F000FFE70020139043F63000C4F2020001687A
:1054000041F004010160006800F00400139013985B
:10541000FFE7C0201E9002201F9001202090032053
:1054200021900820229040F60000C4F202001EA93C
:10543000FCF7CEFE41F2F820C2F20000029046F2E4
:105440002841C4F2020101604FF020614160002157
:105450008160C1604FF48062026141618161C1611C
:1054600001624162FCF778FD18B1FFE7FBF756FBDC
:10547000FFE7FFE7239841F2F821C2F20001C16380
:1054800023988863FFE74720019000221146FDF72B
:105490002BF90198FDF71EF9FFE7FFE7FFE7FFE7AC
:1054A000FFE724B080BD000080B584B00290019178
:1054B000ADF80220029890F84200202817D1FFE7AB
:1054C000019820B1FFE7BDF8020020B9FFE70120F5
:1054D0008DF80F000FE002990020086302980199EF
:1054E000BDF8022001F044FC8DF80F0003E002201B
:1054F0008DF80F00FFE79DF80F0004B080BD00009D
:1055000081B0009001B0704781B0009001B0704749
:1055100080B58AB008900791ADF81A200593002055
:105520000290089890F84100202840F08180FFE721
:10553000079820B1FFE7BDF81A0020B9FFE7012066
:105540008DF8270078E00899002048640899212008
:1055500081F84100FDF730F80290BDF81A00089973
:105560008884BDF81A000899C88408988068B0F546
:10557000805F09D1FFE70898006928B9FFE700209C
:1055800004900798039004E007980490002003908B
:10559000FFE7FFE70898C08C78B3FFE70898029B05
:1055A00005996A4611608021002201F0C3FC40B1D8
:1055B000FFE70899202081F8410003208DF827009B
:1055C0003AE0049858B9FFE7039800886FF35F202A
:1055D00008990968486003980230039008E004982D
:1055E0000078089909684860049801300490FFE742
:1055F0000899C88C0138C884CCE70898029B0599A3
:105600006A4611604021002201F094FC40B1FFE79E
:105610000899202081F8410003208DF827000BE035
:105620000899202081F8410000208DF8270003E030
:1056300002208DF82700FFE79DF827000AB080BD03
:1056400080B586B004900391ADF80A20049890F8D4
:10565000410020286AD1FFE7039820B1FFE7BDF899
:105660000A0020B9FFE701208DF8170062E00398D7
:1056700004990862BDF80A0004998884BDF80A00FC
:105680000499C884049900204864049A212182F86E
:10569000411004998A6B46F6ED01C0F60001D16312
:1056A00004998A6B46F6C111C0F600011164049991
:1056B0008A6B46F2F161C0F60001D1640499896BEE
:1056C000086503A8019004980268806B0199096835
:1056D0000432BDF80A30FCF7F7FC58B1FFE7049933
:1056E000102048640499202081F8410001208DF8A1
:1056F00017001FE0049801686FF040000860FFE7A2
:10570000FFE70498006850E8050F40F08000009023
:10571000FFE700990498026842E805100028F0D1DC
:10572000FFE7FFE700208DF8170003E002208DF867
:105730001700FFE79DF8170006B080BD81B000900C
:1057400001B0704781B0009001B07047FFE7FEE7FD
:1057500080B582B041F20800C2F20000019046F22A
:105760000041C4F200010160062141600021816016
:10577000C1604FF4403202614FF480124261017601
:10578000012242768176C27601774177FBF7FAFEF5
:1057900018B1FFE7FBF7C2F9FFE702B080BD0000D8
:1057A00080B582B041F23000C2F20000019046F6AE
:1057B0000001C4F200010160062141600021816006
:1057C000C1604FF4403202614FF4801242610176B1
:1057D000012242768176C27601774177FBF7D2FECD
:1057E00018B1FFE7FBF79AF9FFE702B080BD0000B0
:1057F00080B58CB0FFE700200B9043F63000C4F278
:105800000200016841F480010160006800F480003A
:105810000B900B98FFE7FFE700200A9043F630005B
:10582000C4F20200016841F400110160006800F454
:1058300000100A900A98FFE70B20019000220892BE
:105840001146FCF751FF0198FCF744FF089A0C2021
:1058500002901146FCF748FF0298FCF73BFF089ABC
:105860000E2003901146FCF73FFF0398FCF732FF30
:10587000089A102004901146FCF736FF0498FCF7B4
:1058800029FF089A112005901146FCF72DFF059875
:10589000FCF720FF089A2F2006901146FCF724FF02
:1058A0000698FCF717FF089A392007901146FCF775
:1058B0001BFF0798FCF70EFF089A3A200990114643
:1058C000FCF712FF0998FCF705FF0CB080BD000043
:1058D00080B594B0002013901290119010900F900A
:1058E000FFE700200E9043F63000C4F2020001688A
:1058F00041F080010160006800F080000E900E9879
:10590000FFE7FFE700200D9043F63000C4F20200ED
:10591000016841F001010160006800F001000D9094
:105920000D98FFE7FFE700200C9043F63000C4F22B
:105930000200016841F004010160006800F0040009
:105940000C900C98FFE7FFE700200B9043F6300027
:10595000C4F20200016841F002010160006800F039
:1059600002000B900B98FFE7FFE700200A9043F638
:105970003000C4F20200016841F0080101600068D3
:1059800000F008000A900A98FFE70020C4F2020025
:1059900001901021049100220792FCF7F5FD049973
:1059A000079A40F60000C4F202000390FCF7ECFDF9
:1059B000079A40F20040C4F2020008906421059169
:1059C000FCF7E2FD0198049A07990F9201220692D2
:1059D000109211910321029112910FA90991FCF7E4
:1059E000F7FB029A0398DDF818C0079B0999DDF8C8
:1059F00010E0CDF83CE0CDF840C011931292FCF7D6
:105A0000E7FBDDF814C0069B079A08980999CDF8C2
:105A10003CC0109311921292FCF7DAFB14B080BDD7
:105A200080B582B041F25830C2F20000019043F2DA
:105A30000001C4F2010101604FF482714160002154
:105A40008160C160016141614FF40072826118227E
:105A5000C2610162416281620A21C162FDF796FB67
:105A600018B1FFE7FBF75AF8FFE702B080BD00006E
:105A700080B588B0002100910791069105910491AD
:105A80000391029141F2B030C2F200000190002275
:105A9000C4F20102026053224260816040F69F72AC
:105AA000C260016141618161FEF726F918B1FFE72B
:105AB000FBF734F8FFE74FF48050049041F2B03028
:105AC000C2F2000004A9FEF7C9FA18B1FFE7FBF71C
:105AD00025F8FFE700200290039041F2B030C2F2B7
